:020000020000FC
:2000000000400034086008140800683A00000000000000000000000000000000000000003E
:2000080006C00074DEC0001406800074D689C9140080003410AACB1400C0003418EAD1148E
:2000100010C00326100000151080010410FFFD360008C4000008D040003FFF06DEFFFC04D6
:20001800DFC00315DF000215DF00020401000074212830040008214000800044E0BFFF1564
:20002000E03FFE1500C0007418C40004E0BFFF1718800035E03FFE1500000306E0BFFE1709
:2000280010800044E0BFFE15E0FFFE17008000B410A1A7C410FFF92EE0BFFF171085883AAC
:2000300010FFFF8CE0BFFF171005D3FA1005003A1884B03AE0BFFF15010000742128350400
:20003800E17FFF1700080EC0003FE606DEFFFB04DFC00115D9400215D9800315D9C004154D
:200040000080007410A9C90411400017D8800204D880001529C00217100D883A008000741E
:2000480010A26204200B883A388001153809883A00089640DFC00117DEC00504F800283A2C
:20005000DEFFFC04DFC00115D9800215D9C0031522000217D8800204D8800015100F883AF6
:200058000080007410A26204280D883A40800115400B883A00082C80DFC00117DEC0040491
:20006000F800283ADEFFFD04DC0000152021883A2809883ADFC00215DC4001152823883A6C
:200068000008228080C002170200007442226204880D883A100F883A8009883A180B883ACD
:200070001A000115403EE83A047FFFC48009883A0180007431A8360401C000441440071E89
:2000780000FFFFC41805883ADFC00217DC400117DC000017DEC00304F800283A814002170F
:2000800028C00117183EE83A0007883A147FF51E003FF3060080007410A9C904200B883ADA
:20008800110000170008184120800007100005262007883A18C0004418800007103FFD1EDF
:200090001905C83AF800283ADEFFFB04DC800315DC400215DC000115DFC004152025883AA2
:200098002823883A3821883AD98000059009883A880B883AD80D883A01C0004404000B0E49
:2000A00088C00117843FFFC4183EE83A103FF72600BFFFC4DFC00417DC800317DC4002178F
:2000A800DC000117DEC00504F800283A0005883ADFC00417DC800317DC400217DC00011723
:2000B000DEC00504F800283ADEFFE304DF001B15DDC01A15DD001715DC801515DC001315FD
:2000B800DFC01C15DD801915DD401815DCC01615DC401415D90010152829883AD9C01115A7
:2000C0003025883A0021883AD8000F15D8000E150039883AD8000915D8000D15D8000C154B
:2000C800D8000B15002F883A9140000301C000449480004429003FCC2100201C213FE00429
:2000D0002000152681C035263C002016803FF61E008009442081501E073FFFC400800284E9
:2000D800D9C00C15D8000F15D8000E15DF000915D8800D15D8000B15914000033821883AF9
:2000E0009480004429003FCC2100201C213FE00401C00044203FEB1EB805883ADFC01C1715
:2000E800DF001B17DDC01A17DD801917DD401817DD001717DCC01617DC801517DC4014179D
:2000F000DC001317DEC01D04F800283A0080008480801726008000C480BFD31E2C7FF40479
:2000F80088C03FCC0080024410C02136D8C0091718012716D9000917014002840008C08092
:200100001007883A88803FCC1080201C10BFE0041887883AD8C00915003FC30600800C04C5
:200108002080B3260080094420812726040000842C7FF40488C03FCC0080024410C00A364F
:20011000E000B416E009883A014002840008C0801007883A88803FCC1080201C10BFE00400
:2001180018B9883A003FB00600800B842080A32600801B042080A326D8C009171800A71632
:20012000D8000F1528BFEA0410803FCC00C00804188028361085883A1085883A00C00074AF
:2001280018E12C0410C5883A110000172000683A0000853C00008534000085340000853421
:200130000000853400008534000085340000853400008534000085340000853400008768B1
:200138000000855000008534000085340000853400008534000085500000853400008534A7
:20014000000085340000853400008534000087D0000085340000853400008534000087E08B
:2001480000008534000086B40000853400008534000086AC0021883A003F7B0600C0040495
:2001500000800044D8C00D15D8000C15D8800B15D8C00E171805003A10005A1ED8800C1789
:200158001000781ED8801117D8000A151440001711C00104D9C0111588005A26D8C00B17A8
:20016000DCC0004405800244182B003ADCC012150000050621000C04990000059CC000441A
:2001680080000F268023883AD9400D178809883A0008BF80D9000D17100B883A1021883AB9
:200170000008C0808889C83AB13FF20EA8009F1E21000DC4990000059CC00044803FF11EC1
:20017800D880121798A3C83AD8C009171C4BC83A0140130ED8C00044188008049880102E50
:2001800000800C0428FFFFC4988000059900004400C0080ED8C00044188008042080052EC2
:2001880000800C0420800005210000449945883A20BFF81ED88012172027883A20A3C83AD9
:20019000D8C00A171C45883AE0A1C83AD8800F17100080261805003A1000AE260400A516C2
:20019800B805883A0440950E102F883A1461883A00000206BDC0004485FFAE269CFFFFC42A
:2001A00098800003A0C00117D9001017D8800005A00B883AD80D883A01C00044183EE83ABE
:2001A800103FF42605FFFFC4003F3B0600C00404D8C00D15D8000C15D8C00E171805003AF8
:2001B000103FA626D8C00C171800171ED8C01117D8000A151C40001719C00104D9C0111545
:2001B800883FA61EDCC00044DCC01215003FBE0604000084D9C00F15003F0B06040000C499
:2001C000003F090600800044040000C4D8800E15003F05060007883A003F4E060080004460
:2001C800D8800915003F5706D88011171440001710800104D880111588000716D8000A156B
:2001D000003F8D06D8C011171C40001718C00104D8C01115883FF90E008000440463C83A74
:2001D800D8800A15003F8406040000448700080ED9001017A00B883A01800804E1FFFFC445
:2001E00000082480103FC71EE5C5883A15FFFFC4D8C01117D9001017800F883A188000171C
:2001E800A0C00117A00B883AD8800005D80D883A183EE83A103FBB1ED8801117BDC000442D
:2001F0000021883A10800104D8801115003ED60600800204D8800D15D8000C15003FB606EB
:2001F800D8C011171CC000179809883A00082280E0A1C83A1023883A0400070ED900101796
:20020000A00B883A01800804800F883A00082480103FA41EBC2F883AA0C00117D9001017B1
:20020800980D883AA00B883A880F883A183EE83A103F9C1ED8801117BC6F883A0021883AD8
:2002100010800104D8801115003EB706210015C4003F510604003B16D8C00A171805003ACB
:20021800103F7F1EA0C00117D900101700800B44D8800005A00B883AD80D883A01C000441D
:20022000183EE83A103F871EB8800044003F75060007883A003EDB06A0C00117D9001017BC
:20022800D9400005D80D883AA00B883A183EE83A103F7C1EBDC00044003E9B06102F883A82
:200230000021883A003E9806A0C00117D9000005D9001017A00B883AD80D883A800F883A34
:20023800183EE83A103F6F1EBC2F883A0021883A003E8D06D9001017A00B883A01800C04F3
:20024000800F883A00082480103F661EBC05883A003F5406A0C00117D900101700800B446B
:20024800D8800005A00B883AD80D883A01C00044183EE83A103F5B1EBDC00044043F480E86
:20025000003FEC06D9001017A00B883A01800804800F883A00082480103F521EBC2F883AFA
:20025800003FBD060080007410A9C9042013883A110000172805883A300F883A480B883AE8
:20026000100D883A00082C812880000BDEFFFA04DCC003151080020CDC800215DC40011565
:20026800DFC00515DD000415DC0000152825883A2027883A3023883A100020262940008F5B
:2002700028000F1601C01B0E3821883A05010004000002060400170E9140008F880D883A2A
:200278009809883A800F883AA400010E01C100040008A44088A3883A80A1C83A00BFF51673
:200280009080000B00FFFFC4108010149080000D1805883ADFC00517DD000417DCC0031768
:20028800DC800217DC400117DC000017DEC00604F800283A0007883A003FF50600FFFFC4F3
:20029000003FF306DEFFFD04DC00001504000074842ACB04DC400115800000152023883A86
:200298002809883A300B883A380D883ADFC002150008D4801007883A00BFFFC4188006261E
:2002A0001805883ADFC00217DC400117DC000017DEC00304F800283A80800017103FF826FD
:2002A800888000151805883ADFC00217DC400117DC000017DEC00304F800283A29001B2EEA
:2002B00028001A16008000440007883A01C007C40000030619C0132618C000442800041644
:2002B800294B883A1085883A293FFA3610000D260007883A214002362149C83A1886B03A68
:2002C0001004D07A280AD07A103FFA1E300002262005883AF800283A1809883A2005883A7A
:2002C800F800283A0007883A003FF806008000440007883A003FEF06DEFFFE04DC00001525
:2002D000DFC001150021883A20000C16000D883A28000E160008ABC01007883A8005003A0E
:2002D8001000011E00C7C83A1805883ADFC00117DC000017DEC00204F800283A0109C83A7B
:2002E00004000044000D883A283FF20E014BC83A8021003A003FEF06DEFFFF04DFC000158F
:2002E800018000442807883A2000041628000C16DFC00017DEC001040008ABC10109C83AE3
:2002F00028000B16180B883A018000440008ABC00085C83ADFC00017DEC00104F800283A4E
:2002F800014BC83ADFC00017DEC001040008ABC10147C83A003FF306000D883A0008ABC106
:20030000018000440008ABC120000A260007883A2080004C1005003A2008D07A1000011EAF
:200308001947883A294B883A203FF91E1805883AF800283A0007883A1805883AF800283ACC
:20031000DEFFFF04DFC00015010000742129D50400C0007418E8DF0420C009260180007486
:2003180031A9D504198006260140010420800017188000151947883A2149883A30FFFB1E0D
:20032000010000742120080400C0007418E0080420C009260180007431A00804198006261D
:200328000140010420800017188000151947883A2149883A30FFFB1E010000742128300483
:2003300000C0007418E8300420C009260180007431A8DF04198006260140010420800017C3
:20033800188000151947883A2149883A30FFFB1E0009954000099D00DFC00017DEC0010485
:20034000F800283ADEFFFF04DFC000150009883A0008E9400008E5800180007431A837043D
:200348003009883A300B883A0009A4C0D1210317D1610417D1A10517000805C0DFC00017C6
:20035000DEC00104F800283ADEFFFD04DFC00215DC400115DC0000152821883A3023883AB9
:2003580020002B16014003040008C08000C0007418E9690410C9883A200025262080021733
:20036000108000CC10001526208000171080061710001226800B883A880D883A103EE83A16
:200368001021883A1000260E0080007410A9D104108000171000031E00C0007418EACB04DF
:2003700000000206103EE83A1007883A0405C83A18800015043FFFC400001906008000744B
:2003780010A9D104108000171000031E00C0007418EACB0400000206103EE83A1007883AA9
:200380000080034418800015043FFFC400000C060080007410A9D104108000171000031E77
:2003880000C0007418EACB0400000206103EE83A1007883A0080144418800015043FFFC474
:200390008005883ADFC00217DC400117DC000017DEC00304F800283ADEFFFE04DFC0011594
:20039800DC00001504000074842921048009883A00091F40813FF604014000742969CE0484
:2003A00000099600DFC00117DC000017DEC00204F800283ADEFFFF04DFC000150009DC80FD
:2003A800008000441001703ADFC00017DEC00104F800283ADEFFFD04DFC00215DC4001153D
:2003B000DC0000152823883A240000172080080710000F1E0000050618FFFFC41800051EE8
:2003B80000800044208008050000090600C003F418D09004808001371080200C103FF61E1B
:2003C000010019040009DB0088803FCC80800035DFC00217DC400117DC000017DEC003044F
:2003C800F800283ADEFFF204DFC00D15DF000C15DDC00B15DD800A15DD400915DD000815B9
:2003D000DCC00715DC800615DC400515DC0004152027883A20800947D8800215D90001155C
:2003D800D8000315D0E00204D8C00015D880011717002447D9000217114024830008C0808E
:2003E000102DD23AB7000116002D883AD9000317014018C40008C08010800C0498A5883A00
:2003E8000029883AD9000317014018C40008C08014EF883AB509883AE00B883A0008B9807F
:2003F000B885883A14401003902B883A88C03FCC18C0201C18FFE0049080000718802026B3
:2003F800D8C0001718800003A0A1883A80C03FCC988008C7188004269809883A19402014B4
:200400000008EB409C0008C59C000017988008071000121E0000050618FFFFC41800051E06
:20040800008000449880080500000C0600C003F418D09004808001371080200C103FF61E4F
:20041000010019040009DB0088803FCC80800235988008C310800044988008C5AC400005F3
:2004180000C00044A0E9883A90E5883A00800404A0BFD01ED880031710C5883AD8800315F0
:20042000D8800117108018C4D8800115D880001710C5883AD880001500800084D8C0031749
:2004280018BFB21EDFC00D17DF000C17DDC00B17DD800A17DD400917DD000817DCC0071718
:20043000DC800617DC400517DC000417DEC00E04F800283ADEFFFE04DFC00115DC00001575
:200438002021883A2100094320803FCC1080201C10BFE0041080004480C0098710C002167E
:2004400080000945000002062080004480800945808009870080040E808009C71000021E72
:200448008009883A0008F24080800717DFC00117DC000017DEC00204F800283ADEFFF9046F
:20045000DFC00615DD400515DD000415DCC00315DC800215DC400115DC0000152023883A56
:20045800014000440008EB408800084588000885880008C58825883A0027883A054018C414
:20046000050008049809883AA80B883A0008C0801021883A110010048909883AA00B883A72
:2004680001801444000A0A0084000C048C09883AA00B883A01800404000A0A009000244599
:200470009CC000449565883A0080008498BFED1EDFC00617DD400517DD000417DCC0031707
:20047800DC800217DC400117DC000017DEC00704F800283ADEFFFC04DFC00315DC800215BE
:20048000DC400115DC0000152021883A2480001720000805010EA6040009DB0004400C045D
:2004880094400035010401040009DB00944000350100FA040009DB00944000358009883A1D
:2004900001400E040008EB408009883A014002040008EB408009883A000913C08009883A8F
:20049800014001840008EB408009883A014003040008EB4000BFFFC48080090580800A04E7
:2004A00010000015100001158000094580000985800009C50080007410AACF04110000171E
:2004A800014002840008BF80100B883A80800715810001040180007431A43504800F883A53
:2004B00000098C00DFC00317DC800217DC400117DC000017DEC00404F800283ADEFFFC0465
:2004B800DFC00315DC800215DC400115DC0000152023883A0021883A048018C404000A166B
:2004C0008009883A900B883A0008C08011001004108028C48909883A888B883A01801404C9
:2004C800000A0740000008068009883A014018C40008C080108010048889883A0140080441
:2004D00001801404000A0A00840000440080008480BFEA1E8880088310BFFFC48880088592
:2004D800DFC00317DC800217DC400117DC000017DEC00404F800283ADEFFF504DFC00A151B
:2004E000DF000915DDC00815DD800715DD400615DD000515DCC00415DC800315DC40021541
:2004E800DC0001152027883AD9800015316F883A00800044208009C52DC1262E282D883A9E
:2004F000B480000398C0090318803FCC1080201C10BFE0041000A0161009883A1000061E5A
:2004F80090C03FCC18C0201C18FFE004008016C418800D1E0000920691403FCC2940201C44
:20050000297FE0040080007410A9D404108000172885883A108000031080010C1000851ED1
:2005080000800EC42880832624C5883A10000A0598C00A07008016C418800326053FFFC4DB
:200510000009883A000041069C400A448C0000030080007410A9D4041540001780803FCC04
:200518001080201C10BFE0041545883A108000031080010C1000021E0029883A00001206C5
:200520000029883AA009883A014002840008C08080C03FCC18C0201C18FFE00410C5883A65
:20052800153FF4048C4000448C00000380803FCC1080201C10BFE0041545883A108000038F
:200530001080010C103FEF1E80C03FCC18C0201C18FFE00400800EC418801B1E8C40004425
:200538008C00000380803FCC1080201C10BFE0041545883A108000031080010C10001226F6
:200540000009883A014002840008C08080C03FCC18C0201C18FFE00410C5883A113FF40488
:200548008C4000448C00000380803FCC1080201C10BFE0041545883A108000031080010C1E
:2005500010000226003FEF060009883A90C03FCC18C0201C18FFE0040080128418801E26F8
:2005580010C003160080120418802F1E00000406008012C418801D260080198418802A1EE7
:200560000100020E20BFFFC4988008450500260EA0BFFFC41009883A988008850140010442
:2005680010C03FCC28803FCC10C0022E994008850000030620803FCC00C0008418801A2EA7
:200570009809883A00092DC09880088300C000841880152E003FFA0600800084A080121EBD
:200578009809883A000913C000000F0605000E169C400843008013C414400B3604001404B7
:200580008461C83A99000883014018C40008C0808885883A108010049889883A0140080448
:20058800800D883A000A0A0000BFFFC49880090500004C0618C03FCC0080018410C04936BF
:2005900024C5883A14800A059880090310800044988009050000430690C03FCC18C0201C27
:2005980018FFE004008006C41880021E9800090500003C0690C03FCC18C0201C18FFE004F4
:2005A000008003441880021E980008450000350690C03FCC18C0201C18FFE004008002842C
:2005A80018800A1E9800084598800883108000449880088510803FCC00C000841880292EA4
:2005B0009809883A00092DC00000260690C03FCC18C0201C18FFE004008002041880061EFA
:2005B80098C0084318803FCC10001E2618BFFFC49880084500001B0690803FCC1080201C82
:2005C00010BFE00400C0007418E9D40418C0001710C5883A10800007108025CC1000112676
:2005C80098C008830080004410C0022E9809883A00092DC09C000843008013C41400063685
:2005D00099000883014018C40008C08014C5883A1405883A1480100598800843108000442C
:2005D80098800845B5800044B5C03A26003F14068023883A8C3FFFC49009883A014018C48C
:2005E0000008C08014C5883A1405883A10C010070080080418800326008004041440031614
:2005E80000000406803FF21E00000206888000440000010600800404A0802445A880010E77
:2005F000102B883AA000248594800044A50018C40080008490801D1E008004041540021688
:2005F8009800098500001006AD61883A9C00098599002447008004041100040E2008923A0A
:20060000800B883A0008B3809880248599003D07008004041100040E2008923A800B883AC8
:200608000008B38098803D459C0009479809883A0008F240980009C5988009478080092677
:2006100000800044988009C5003FF70604401404003FC8069829883A054004040025883AC4
:20061800003FFA06D8800017DFC00A17DF000917DDC00817DD800717DD400617DD000517EB
:20062000DCC00417DC800317DC400217DC000117DEC00B04F800283ADEFFFF04DFC00015C9
:200628002005883A2100001721000A0411C0021700093780DFC00017DEC00104F800283A07
:200630000080007410AACF04108000171000021E00BFDE84F800283A2000021E00BFFA845A
:20063800F800283A2180031521C00515000F303A00BFFF843884703A1001703A00800074C4
:2006400010AAD00410C00017018000441985883A2885883A2080021510C0022E2180040530
:2006480000000106200004050080007410A9D2042080011510C0001720C0001510C0001766
:2006500019000115110000153801703A0005883AF800283AF800283A3005883AF800283A86
:20065800DEFFFF04DFC00015200002262080021710000D1E0080007410A9D1041080001789
:200660001000031E00C0007418EACB0400000206103EE83A1007883A00800584188000153D
:2006680000BFFA840000070621400115288000172080001528800017110001152900001519
:200670000005883ADFC00017DEC00104F800283AF800283ADEFFFD04DFC00215DC400115D0
:20067800DC0000152023883A2809883A300B883A380D883A0009AE401021883A10000E1657
:200680001009883A014003040008C08000C0007418E9690410C5883A10C0001788C0001572
:2006880010C0011788C0011510800217888002158009883A0009C680DFC00217DC400117BE
:20069000DC000017DEC00304F800283ADEFFFA04DFC00515DD000415DCC00315DC800215A7
:20069800DC400115DC0000152005883A2827883A3029883A0400007484296C0404800044AF
:2006A00004407FC48009883A100B883A900D883A880F883A00099D40843FFD048009883ADE
:2006A800980B883A000D883A880F883A00099D4081000604A00B883A900D883A880F883A0F
:2006B00000099D40DFC00517DD000417DCC00317DC800217DC400117DC000017DEC0060497
:2006B800F800283ADEFFF904DFC00615DD400515DD000415DCC00315DC800215DC400115AE
:2006C000DC0000152029883A2827883A302B883A014000742969CE040009E6C01021883A35
:2006C800100002260025883A00000A06A009883A0009EDC01021883A1000051E047FFFC456
:2006D000043FFB4400002D06043FFCC400002B06048000448009883A0009F9801023883A97
:2006D800100035161009883A014003040008C08002000074422969041209883A009000344D
:2006E00010BFFFC49886703A20C002159004C03A1000121E18900034208002150080007454
:2006E80010A9D00411C0001721800017000B883A4007883A024000440200030418800017B1
:2006F0001180031E188002171000010E193FDE1E2A4B883A1A07883A397FF82E8080031702
:2006F80010001726A00B883A980D883AA80F883A103EE83A1021883A1000110E8809883A63
:200700000009C6800080007410A9D104108000171000031E00C0007418EACB040000020623
:20070800103EE83A1007883A0405C83A18800015047FFFC4000002061021883A003FEF065B
:200710008805883ADFC00617DD400517DD000417DCC00317DC800217DC400117DC0000173B
:20071800DEC00704F800283ADEFFFC04DFC00315DC800215DC400115DC0000152025883A8D
:200720000080008411000C0E044000748C69690404000304800B883A0008C0801445883AB5
:20072800100002159009883A800B883A0008C0801445883A10000015DFC00317DC8002172C
:20073000DC400117DC000017DEC00404F800283A000B303A00BFFF842884703A1001703ABA
:2007380020C0001720800117188001152080011710C0001521000115210000152801703A67
:20074000F800283ADEFFFD04DFC00215DC400115DC000015D4200917D0A107171080004411
:20074800D0A1071500001B06844000178080040310000326D0A107171000011E8000040581
:20075000D0E1071780800217188011368080040310000F1E8080031781000517103EE83A57
:200758001007883A1000031E8009883A0009CD0000000706808002171885883A80800215BA
:20076000D0E1071710C0022E00800044808004058821883AD0A0090480BFE31EDFC00217FD
:20076800DC400117DC000017DEC00304F800283ADEFFFF04DFC000150009DD00DFC000171B
:20077000DEC00104F800283A000170FAF800283ADEFFFE04DFC00115DC0000152021883A1F
:20077800014666B4296666440008BF8010001526100B883A00800D0E0007883A012000349F
:20078000213FFFC401800044213FFFC4203FFE1E1987883A28FFFC1E1009883A017999B48E
:20078800295999C40008C08080A1883A8009883A014001440008C08010BFFFC4103FFE1E31
:20079000000005068009883A014001440008C08010BFFFC400BFFE160005883ADFC0011742
:20079800DC000017DEC00204F800283ADEFFFB04DFC00415DCC00315DC800215DC40011563
:2007A000DC0000152027883A2821883A2C40001700082280148000448C00072689000217D4
:2007A800980B883A900D883A000A0380100003268C400017847FF91E0023883A8805883A76
:2007B000DFC00417DCC00317DC800217DC400117DC000017DEC00504F800283ADEFFF90442
:2007B800DFC00615DD400515DD000415DCC00315DC800215DC400115DC0000152025883AE9
:2007C0000080007410A9CC0414400017102B883A88801626053FFFC404C00BC48C000217B1
:2007C8008009883A000822801007883A8085883A1505883A1080000714C0011E1D07883A30
:2007D0001C85883A1080000714C001261000051E8009883A900B883A180D883A000A0380C5
:2007D800100003268C4000178D7FEC1E0023883A8805883ADFC00617DD400517DD000417AE
:2007E000DCC00317DC800217DC400117DC000017DEC00704F800283ADEFFFB04DFC0041510
:2007E800DCC00315DC800215DC400115DC0000152025883A0021883A00C0007418E969041B
:2007F00004C000749CE9D0041880001710000E1E8009883A014003040008C08000C000745E
:2007F80018E9690410C5883A1480001598800017140002168005883A000008069C000015D2
:200800008005883A000005068400004418C003040080080480BFEC1E00BFFA04DFC0041793
:20080800DCC00317DC800217DC400117DC000017DEC00504F800283A31FFFFC43000061E36
:2008100000000A0639FFFFC400BFFFC421000044294000443880052620C0000328800003B8
:2008180018BFF8261885C83AF800283A0005883AF800283A2011883A30000726000F883A90
:2008200029C5883A1100000341C7883A39C000441900000539BFFA1E4005883AF800283A5E
:2008280030000526310D883A2005883A114000051080004411BFFD1E2005883AF800283A18
:200830006C6C65487266206F4E206D6F20736F6900214949002064250000000A7665642F33
:2008380064636C2F3236315F000037307665642F6C756E2F0000006C2020200020202020A7
:20084000282820202028282820202020202020202020202020202020101088201010101068
:200848001010101010101010040404100404040410040404101010104141101041414141E2
:20085000010101010101010101010101010101010101010110101010424210104242424288
:200858000202020202020202020202020202020202020202101010100000002000000000F8
:20086000000000000000000000000000000000000000000000000000000000000000000078
:20086800000000000000000000000000000000000000000000000000000000000000000070
:20087000000000000000000000000000000000000000000000000000000000000000000068
:20087800000000000000000000000000000000000000000000000000000000000000000060
:20088000000000000000000000000000000000000000000000000000000000000000000058
:20088800000000000000000000000000000000000000000000000000000000000000000050
:20089000000000000000000000000000000000000000000000000000000000000000000048
:20089800000000000000000000000000000000000000000000000000202020002020202060
:2008A000282820202028282820202020202020202020202020202020101088201010101008
:2008A800101010101010101004040410040404041004040410101010414110104141414182
:2008B000010101010101010101010101010101010101010110101010424210104242424228
:2008B800020202020202020202020202020202020202020210101010000000200000000098
:2008C000000000000000000000000000000000000000000000000000000000000000000018
:2008C800000000000000000000000000000000000000000000000000000000000000000010
:2008D000000000000000000000000000000000000000000000000000000000000000000008
:2008D800000000000000000000000000000000000000000000000000000000000000000000
:2009D0000000000000000000000000000000000000000000000000000000A43C0000A4443F
:2009D8000000A44C000000000000000000000000000000000000000000000000000000000F
:2009E0000000000000000000000000000000000000000000000000000000000000000000F7
:2009E8000000000000000000000000000000000000000000000000000000000000000000EF
:2009F0000000000000000000000000000000000000000000000000000000000000000000E7
:2009F8000000000000000000000000000000000000000000000000000000000000000000DF
:200A0000000000000000000000000000000000000000000000000004000000000001000AC7
:200A0800000000000002000A00000000000000000000000000000000000000000000A0DC46
:200A1000000000000000000000000000000098980000000000000000000000000001102065
:200A18000000000000000000000000000000000000000000000000000000000000000000BE
:200A20000000000000000000000000000000000000000000000000000000000000000000B6
:200A28000000000000000000000000000000000000000000000000000000000000000000AE
:200A30000000000000000000000000000000000000000000000000000000000000000000A6
:200A380000000000000000000000000000000000000000000000000000000000000000009E
:200A4000000000000000000000000000000000000000000000000000000000000000000096
:200A480000000000000000000000000000000000000000000000000000000000000000008E
:200A500000000000000000000000000000000000000000000000A7380000A7380000A0EC3C
:200A5800000000000000000000000000000099580000000000000000000000000000A57C6C
:200A600000000000000000000000A57C00000000000000000000A57C000000000000000034
:200A680000000000000000000000000000000000000000000000000000000000000000006E
:200A7000000000000000000000000000000000000000000000000000000000000000000066
:200A780000000000000000000000000000000000000000000000000000000000000000005E
:200A8000000000000000000000000000000000000000000000000000000000000000000056
:200A880000000000000000000000000000000000000000000000000000000000000000004E
:200A9000000000000000000000000000000000000000000000000000000000000000000046
:200A980000000000000000000000000000000000000000000000000000000000000000003E
:200AA000000000000000000000000000000000000000000000000000000000000000000036
:200AA80000000000000000000000000000000000000000000000000000000000000000002E
:200AB000000000000000000000000000000000000000000000000000000000000000000026
:200AB800000000000000000000000000000000000000000000000000000000000000A37CFF
:200AC0000000A37C602040000000A7300000A7300000A57C0000A57CFFFFFFFF000000004B
:200AC8000000A7480000A7480000A279000000000000000000000000000000000000000015
:200AD000000000000000000000000000000000000000000000000000000000000000000006
:200AD8000000000000000000000000000000000000000000000000000000000000000000FE
:200AE0000000000000000000000000000000000000000000000000000000000000000000F6
:200AE8000000000000000000000000000000000000000000000000000000000000000000EE
:00000001FF
